{
  "_format": "hh-sol-artifact-1",
  "contractName": "ConfidentialWETH",
  "sourceName": "contracts/ConfidentialWETH.sol",
  "abi": [
    {
      "inputs": [],
      "stateMutability": "nonpayable",
      "type": "constructor"
    },
    {
      "inputs": [
        {
          "internalType": "address",
          "name": "spender",
          "type": "address"
        },
        {
          "internalType": "uint256",
          "name": "allowance",
          "type": "uint256"
        },
        {
          "internalType": "uint256",
          "name": "needed",
          "type": "uint256"
        }
      ],
      "name": "ERC20InsufficientAllowance",
      "type": "error"
    },
    {
      "inputs": [
        {
          "internalType": "address",
          "name": "sender",
          "type": "address"
        },
        {
          "internalType": "uint256",
          "name": "balance",
          "type": "uint256"
        },
        {
          "internalType": "uint256",
          "name": "needed",
          "type": "uint256"
        }
      ],
      "name": "ERC20InsufficientBalance",
      "type": "error"
    },
    {
      "inputs": [
        {
          "internalType": "address",
          "name": "approver",
          "type": "address"
        }
      ],
      "name": "ERC20InvalidApprover",
      "type": "error"
    },
    {
      "inputs": [
        {
          "internalType": "address",
          "name": "receiver",
          "type": "address"
        }
      ],
      "name": "ERC20InvalidReceiver",
      "type": "error"
    },
    {
      "inputs": [
        {
          "internalType": "address",
          "name": "sender",
          "type": "address"
        }
      ],
      "name": "ERC20InvalidSender",
      "type": "error"
    },
    {
      "inputs": [
        {
          "internalType": "address",
          "name": "spender",
          "type": "address"
        }
      ],
      "name": "ERC20InvalidSpender",
      "type": "error"
    },
    {
      "inputs": [
        {
          "internalType": "uint8",
          "name": "got",
          "type": "uint8"
        },
        {
          "internalType": "uint8",
          "name": "expected",
          "type": "uint8"
        }
      ],
      "name": "InvalidEncryptedInput",
      "type": "error"
    },
    {
      "inputs": [
        {
          "internalType": "int32",
          "name": "value",
          "type": "int32"
        }
      ],
      "name": "SecurityZoneOutOfBounds",
      "type": "error"
    },
    {
      "anonymous": false,
      "inputs": [
        {
          "indexed": true,
          "internalType": "address",
          "name": "owner",
          "type": "address"
        },
        {
          "indexed": true,
          "internalType": "address",
          "name": "spender",
          "type": "address"
        },
        {
          "indexed": false,
          "internalType": "uint256",
          "name": "value",
          "type": "uint256"
        }
      ],
      "name": "Approval",
      "type": "event"
    },
    {
      "anonymous": false,
      "inputs": [
        {
          "indexed": true,
          "internalType": "address",
          "name": "owner",
          "type": "address"
        },
        {
          "indexed": true,
          "internalType": "address",
          "name": "spender",
          "type": "address"
        }
      ],
      "name": "ApprovalEncrypted",
      "type": "event"
    },
    {
      "anonymous": false,
      "inputs": [
        {
          "indexed": true,
          "internalType": "address",
          "name": "to",
          "type": "address"
        },
        {
          "indexed": false,
          "internalType": "uint128",
          "name": "amount",
          "type": "uint128"
        }
      ],
      "name": "Deposit",
      "type": "event"
    },
    {
      "anonymous": false,
      "inputs": [
        {
          "indexed": true,
          "internalType": "address",
          "name": "from",
          "type": "address"
        },
        {
          "indexed": true,
          "internalType": "address",
          "name": "to",
          "type": "address"
        },
        {
          "indexed": false,
          "internalType": "uint256",
          "name": "value",
          "type": "uint256"
        }
      ],
      "name": "Transfer",
      "type": "event"
    },
    {
      "anonymous": false,
      "inputs": [
        {
          "indexed": true,
          "internalType": "address",
          "name": "from",
          "type": "address"
        },
        {
          "indexed": true,
          "internalType": "address",
          "name": "to",
          "type": "address"
        }
      ],
      "name": "TransferEncrypted",
      "type": "event"
    },
    {
      "anonymous": false,
      "inputs": [
        {
          "indexed": true,
          "internalType": "address",
          "name": "from",
          "type": "address"
        },
        {
          "indexed": true,
          "internalType": "address",
          "name": "to",
          "type": "address"
        },
        {
          "indexed": false,
          "internalType": "uint128",
          "name": "amount",
          "type": "uint128"
        }
      ],
      "name": "Withdraw",
      "type": "event"
    },
    {
      "inputs": [
        {
          "internalType": "address",
          "name": "to",
          "type": "address"
        },
        {
          "internalType": "euint128",
          "name": "amount",
          "type": "bytes32"
        }
      ],
      "name": "_transferEncrypted",
      "outputs": [
        {
          "internalType": "euint128",
          "name": "",
          "type": "bytes32"
        }
      ],
      "stateMutability": "nonpayable",
      "type": "function"
    },
    {
      "inputs": [
        {
          "internalType": "address",
          "name": "from",
          "type": "address"
        },
        {
          "internalType": "address",
          "name": "to",
          "type": "address"
        },
        {
          "internalType": "euint128",
          "name": "value",
          "type": "bytes32"
        }
      ],
      "name": "_transferFromEncrypted",
      "outputs": [
        {
          "internalType": "euint128",
          "name": "",
          "type": "bytes32"
        }
      ],
      "stateMutability": "nonpayable",
      "type": "function"
    },
    {
      "inputs": [
        {
          "internalType": "address",
          "name": "owner",
          "type": "address"
        },
        {
          "internalType": "address",
          "name": "spender",
          "type": "address"
        }
      ],
      "name": "allowance",
      "outputs": [
        {
          "internalType": "uint256",
          "name": "",
          "type": "uint256"
        }
      ],
      "stateMutability": "view",
      "type": "function"
    },
    {
      "inputs": [
        {
          "internalType": "address",
          "name": "owner",
          "type": "address"
        },
        {
          "internalType": "address",
          "name": "spender",
          "type": "address"
        }
      ],
      "name": "allowanceEncrypted",
      "outputs": [
        {
          "internalType": "euint128",
          "name": "",
          "type": "bytes32"
        }
      ],
      "stateMutability": "view",
      "type": "function"
    },
    {
      "inputs": [
        {
          "internalType": "address",
          "name": "spender",
          "type": "address"
        },
        {
          "internalType": "uint256",
          "name": "value",
          "type": "uint256"
        }
      ],
      "name": "approve",
      "outputs": [
        {
          "internalType": "bool",
          "name": "",
          "type": "bool"
        }
      ],
      "stateMutability": "nonpayable",
      "type": "function"
    },
    {
      "inputs": [
        {
          "internalType": "address",
          "name": "spender",
          "type": "address"
        },
        {
          "components": [
            {
              "internalType": "uint256",
              "name": "ctHash",
              "type": "uint256"
            },
            {
              "internalType": "uint8",
              "name": "securityZone",
              "type": "uint8"
            },
            {
              "internalType": "uint8",
              "name": "utype",
              "type": "uint8"
            },
            {
              "internalType": "bytes",
              "name": "signature",
              "type": "bytes"
            }
          ],
          "internalType": "struct InEuint128",
          "name": "value",
          "type": "tuple"
        }
      ],
      "name": "approveEncrypted",
      "outputs": [
        {
          "internalType": "bool",
          "name": "",
          "type": "bool"
        }
      ],
      "stateMutability": "nonpayable",
      "type": "function"
    },
    {
      "inputs": [
        {
          "internalType": "address",
          "name": "account",
          "type": "address"
        }
      ],
      "name": "balanceOf",
      "outputs": [
        {
          "internalType": "uint256",
          "name": "",
          "type": "uint256"
        }
      ],
      "stateMutability": "view",
      "type": "function"
    },
    {
      "inputs": [
        {
          "internalType": "address",
          "name": "account",
          "type": "address"
        }
      ],
      "name": "balanceOfEncrypted",
      "outputs": [
        {
          "internalType": "euint128",
          "name": "",
          "type": "bytes32"
        }
      ],
      "stateMutability": "view",
      "type": "function"
    },
    {
      "inputs": [],
      "name": "decimals",
      "outputs": [
        {
          "internalType": "uint8",
          "name": "",
          "type": "uint8"
        }
      ],
      "stateMutability": "view",
      "type": "function"
    },
    {
      "inputs": [
        {
          "internalType": "address",
          "name": "to",
          "type": "address"
        }
      ],
      "name": "deposit",
      "outputs": [],
      "stateMutability": "payable",
      "type": "function"
    },
    {
      "inputs": [],
      "name": "name",
      "outputs": [
        {
          "internalType": "string",
          "name": "",
          "type": "string"
        }
      ],
      "stateMutability": "view",
      "type": "function"
    },
    {
      "inputs": [],
      "name": "rate",
      "outputs": [
        {
          "internalType": "uint256",
          "name": "",
          "type": "uint256"
        }
      ],
      "stateMutability": "view",
      "type": "function"
    },
    {
      "inputs": [],
      "name": "symbol",
      "outputs": [
        {
          "internalType": "string",
          "name": "",
          "type": "string"
        }
      ],
      "stateMutability": "view",
      "type": "function"
    },
    {
      "inputs": [],
      "name": "totalSupply",
      "outputs": [
        {
          "internalType": "uint256",
          "name": "",
          "type": "uint256"
        }
      ],
      "stateMutability": "view",
      "type": "function"
    },
    {
      "inputs": [
        {
          "internalType": "address",
          "name": "to",
          "type": "address"
        },
        {
          "internalType": "uint256",
          "name": "value",
          "type": "uint256"
        }
      ],
      "name": "transfer",
      "outputs": [
        {
          "internalType": "bool",
          "name": "",
          "type": "bool"
        }
      ],
      "stateMutability": "nonpayable",
      "type": "function"
    },
    {
      "inputs": [
        {
          "internalType": "address",
          "name": "to",
          "type": "address"
        },
        {
          "components": [
            {
              "internalType": "uint256",
              "name": "ctHash",
              "type": "uint256"
            },
            {
              "internalType": "uint8",
              "name": "securityZone",
              "type": "uint8"
            },
            {
              "internalType": "uint8",
              "name": "utype",
              "type": "uint8"
            },
            {
              "internalType": "bytes",
              "name": "signature",
              "type": "bytes"
            }
          ],
          "internalType": "struct InEuint128",
          "name": "encryptedAmount",
          "type": "tuple"
        }
      ],
      "name": "transferEncrypted",
      "outputs": [
        {
          "internalType": "euint128",
          "name": "",
          "type": "bytes32"
        }
      ],
      "stateMutability": "nonpayable",
      "type": "function"
    },
    {
      "inputs": [
        {
          "internalType": "address",
          "name": "from",
          "type": "address"
        },
        {
          "internalType": "address",
          "name": "to",
          "type": "address"
        },
        {
          "internalType": "uint256",
          "name": "value",
          "type": "uint256"
        }
      ],
      "name": "transferFrom",
      "outputs": [
        {
          "internalType": "bool",
          "name": "",
          "type": "bool"
        }
      ],
      "stateMutability": "nonpayable",
      "type": "function"
    },
    {
      "inputs": [
        {
          "internalType": "address",
          "name": "from",
          "type": "address"
        },
        {
          "internalType": "address",
          "name": "to",
          "type": "address"
        },
        {
          "components": [
            {
              "internalType": "uint256",
              "name": "ctHash",
              "type": "uint256"
            },
            {
              "internalType": "uint8",
              "name": "securityZone",
              "type": "uint8"
            },
            {
              "internalType": "uint8",
              "name": "utype",
              "type": "uint8"
            },
            {
              "internalType": "bytes",
              "name": "signature",
              "type": "bytes"
            }
          ],
          "internalType": "struct InEuint128",
          "name": "value",
          "type": "tuple"
        }
      ],
      "name": "transferFromEncrypted",
      "outputs": [
        {
          "internalType": "euint128",
          "name": "",
          "type": "bytes32"
        }
      ],
      "stateMutability": "nonpayable",
      "type": "function"
    },
    {
      "inputs": [
        {
          "internalType": "uint128",
          "name": "amount",
          "type": "uint128"
        }
      ],
      "name": "withdraw",
      "outputs": [],
      "stateMutability": "nonpayable",
      "type": "function"
    }
  ],
  "bytecode": "0x608060405234801561000f575f5ffd5b5060405180604001604052806011815260200170086dedcccd2c8cadce8d2c2d840ae8aa89607b1b815250604051806040016040528060058152602001640c6ae8aa8960db1b81525081600390816100679190610327565b5060046100748282610327565b5050506100865f61009960201b60201c565b6007819055610094906100aa565b6104a0565b5f6100a48282610113565b92915050565b604051631974142760e21b81526004810182905230602482015273ea30c4b8b44078bbf8a6ef5b9f1ec1626c7848d9906365d0509c906044015f604051808303815f87803b1580156100fa575f5ffd5b505af115801561010c573d5f5f3e3d5ffd5b5050505050565b5f8061012184600685610129565b949350505050565b604080515f8082526020820190925273ea30c4b8b44078bbf8a6ef5b9f1ec1626c7848d990631888debd908590601a9061016f8960ff8a1661016a8a6101ce565b610207565b6040518563ffffffff1660e01b815260040161018e949392919061041b565b6020604051808303815f875af11580156101aa573d5f5f3e3d5ffd5b505050506040513d601f19601f820116820180604052508101906101219190610475565b5f5f8260030b12156101fd576040516311ead17f60e31b8152600383900b600482015260240160405180910390fd5b5063ffffffff1690565b604080516003808252608082019092526060915f919060208201848036833701905050905084815f8151811061023f5761023f61048c565b602002602001018181525050838160018151811061025f5761025f61048c565b602002602001018181525050828160028151811061027f5761027f61048c565b6020908102919091010152949350505050565b634e487b7160e01b5f52604160045260245ffd5b600181811c908216806102ba57607f821691505b6020821081036102d857634e487b7160e01b5f52602260045260245ffd5b50919050565b601f82111561032257805f5260205f20601f840160051c810160208510156103035750805b601f840160051c820191505b8181101561010c575f815560010161030f565b505050565b81516001600160401b0381111561034057610340610292565b6103548161034e84546102a6565b846102de565b6020601f821160018114610386575f831561036f5750848201515b5f19600385901b1c1916600184901b17845561010c565b5f84815260208120601f198516915b828110156103b55787850151825560209485019460019092019101610395565b50848210156103d257868401515f19600387901b60f8161c191681555b50505050600190811b01905550565b5f8151808452602084019350602083015f5b828110156104115781518652602095860195909101906001016103f3565b5093949350505050565b60ff851681525f6020851061043e57634e487b7160e01b5f52602160045260245ffd5b8460208301526080604083015261045860808301856103e1565b828103606084015261046a81856103e1565b979650505050505050565b5f60208284031215610485575f5ffd5b5051919050565b634e487b7160e01b5f52603260045260245ffd5b611964806104ad5f395ff3fe608060405260043610610110575f3560e01c806370a082311161009d578063e1a136d511610062578063e1a136d514610305578063f340fa0114610324578063f4621a7e14610337578063f917aa571461037b578063fe229cbe1461039a575f5ffd5b806370a082311461023b57806395d89b411461025a578063a9059cbb1461026e578063c33d0b561461028d578063dd62ed3e146102c1575f5ffd5b806323b872dd116100e357806323b872dd146101ac5780632c4e722e146101cb578063303111aa146101e2578063313ce5671461020157806363c05a331461021c575f5ffd5b806302387a7b1461011457806306fdde0314610135578063095ea7b31461015f57806318160ddd1461018e575b5f5ffd5b34801561011f575f5ffd5b5061013361012e36600461143f565b6103b9565b005b348015610140575f5ffd5b506101496104d8565b6040516101569190611493565b60405180910390f35b34801561016a575f5ffd5b5061017e6101793660046114c0565b610568565b6040519015158152602001610156565b348015610199575f5ffd5b506002545b604051908152602001610156565b3480156101b7575f5ffd5b5061017e6101c63660046114e8565b610581565b3480156101d6575f5ffd5b5061019e633b9aca0081565b3480156101ed575f5ffd5b5061019e6101fc3660046114c0565b6105a4565b34801561020c575f5ffd5b5060405160098152602001610156565b348015610227575f5ffd5b5061017e610236366004611538565b6105b7565b348015610246575f5ffd5b5061019e610255366004611583565b6105dc565b348015610265575f5ffd5b506101496105f9565b348015610279575f5ffd5b5061017e6102883660046114c0565b610608565b348015610298575f5ffd5b5061019e6102a7366004611583565b6001600160a01b03165f9081526005602052604090205490565b3480156102cc575f5ffd5b5061019e6102db36600461159c565b6001600160a01b039182165f90815260016020908152604080832093909416825291909152205490565b348015610310575f5ffd5b5061019e61031f3660046115cd565b610615565b610133610332366004611583565b61062f565b348015610342575f5ffd5b5061019e61035136600461159c565b6001600160a01b039182165f90815260066020908152604080832093909416825291909152205490565b348015610386575f5ffd5b5061019e6103953660046114e8565b6107bc565b3480156103a5575f5ffd5b5061019e6103b4366004611538565b6107df565b5f6103cc826001600160801b03166107f0565b335f908152600560205260408120549192506103e882846107fb565b90505f6103fe82856103f95f6107f0565b61083c565b90505f61040b8483610895565b9050610416816108d6565b610420813361093f565b335f90815260056020526040812082905560075461043e9087610895565b9050610449816108d6565b6007819055336108fc610469633b9aca006001600160801b038b1661163b565b6040518115909202915f818181858888f1935050505015801561048e573d5f5f3e3d5ffd5b506040516001600160801b0388168152339081907ff7c94207a71e9e28815faa70ca42021f47a1d25c25fbec0973eb7beb92f421929060200160405180910390a350505050505050565b6060600380546104e790611652565b80601f016020809104026020016040519081016040528092919081815260200182805461051390611652565b801561055e5780601f106105355761010080835404028352916020019161055e565b820191905f5260205f20905b81548152906001019060200180831161054157829003601f168201915b5050505050905090565b5f336105758185856109b2565b60019150505b92915050565b5f3361058e8582856109c4565b610599858585610a40565b506001949350505050565b5f6105b0338484610a9d565b9392505050565b5f6105d333846105ce6105c986611702565b610b9d565b610c03565b50600192915050565b6001600160a01b0381165f9081526020819052604081205461057b565b6060600480546104e790611652565b5f33610575818585610a40565b5f61062784846103956105c986611702565b949350505050565b34633b9aca008110156106895760405162461bcd60e51b815260206004820181905260248201527f416d6f756e74206d7573742062652067726561746572207468616e207261746560448201526064015b60405180910390fd5b5f610698633b9aca00836117df565b11156106d757336108fc6106b0633b9aca00846117df565b6040518115909202915f818181858888f193505050501580156106d5573d5f5f3e3d5ffd5b505b5f6106e6633b9aca00836117f2565b90505f6106fb826001600160801b03166107f0565b6001600160a01b0385165f90815260056020526040812054919250906107219083610d04565b905061072c816108d6565b610736818661093f565b6001600160a01b0385165f90815260056020526040812082905560075461075d9084610d04565b9050610768816108d6565b60078190556040516001600160801b03851681526001600160a01b038716907fc6dcd8d437d8b3537583463d84a6ba9d7e3e013fa4e004da9b6dee1482038be59060200160405180910390a2505050505050565b5f5f6107c9853385610d45565b90506107d6858583610a9d565b95945050505050565b5f6105b0836101fc6105c985611702565b5f61057b825f610dc8565b5f61080583610dd6565b610815576108125f6107f0565b92505b61081e82610dd6565b61082e5761082b5f6107f0565b91505b6105b0600684846012610ddf565b5f61084684610dd6565b610856576108535f610e77565b93505b61085f83610dd6565b61086f5761086c5f6107f0565b92505b61087882610dd6565b610888576108855f6107f0565b91505b6106276006858585610e82565b5f61089f83610dd6565b6108af576108ac5f6107f0565b92505b6108b882610dd6565b6108c8576108c55f6107f0565b91505b6105b0600684846007610ddf565b604051631974142760e21b81526004810182905230602482015273ea30c4b8b44078bbf8a6ef5b9f1ec1626c7848d9906365d0509c906044015f604051808303815f87803b158015610926575f5ffd5b505af1158015610938573d5f5f3e3d5ffd5b5050505050565b604051631974142760e21b8152600481018390526001600160a01b038216602482015273ea30c4b8b44078bbf8a6ef5b9f1ec1626c7848d9906365d0509c906044015f604051808303815f87803b158015610998575f5ffd5b505af11580156109aa573d5f5f3e3d5ffd5b505050505050565b6109bf8383836001610eab565b505050565b6001600160a01b038381165f908152600160209081526040808320938616835292905220545f19811015610a3a5781811015610a2c57604051637dc7a0d960e11b81526001600160a01b03841660048201526024810182905260448101839052606401610680565b610a3a84848484035f610eab565b50505050565b6001600160a01b038316610a6957604051634b637e8f60e11b81525f6004820152602401610680565b6001600160a01b038216610a925760405163ec442f0560e01b81525f6004820152602401610680565b6109bf838383610f7d565b6001600160a01b0383165f908152600560205260408120548190610ad090610ac69085906110a3565b846103f95f6107f0565b6001600160a01b0386165f9081526005602052604081205491925090610af69083610895565b6001600160a01b0386165f9081526005602052604081205491925090610b1c9084610d04565b9050610b27826108d6565b610b30816108d6565b610b3a828861093f565b610b44818761093f565b6001600160a01b038088165f8181526005602052604080822086905592891680825283822085905592517f7612539b010127d1a2f810eeff1131de23a28ecfa8228f92a9606a879300fbb59190a3509095945050505050565b5f610bad826040015160066110e4565b60408051608080820183525f808352602080840182905283850191909152606092830183905283519182018452855182528086015160ff1690820152600692810192909252808401519082015261057b9061111b565b6001600160a01b038316610c505760405162461bcd60e51b815260206004820152601460248201527322a921991824b73b30b634b220b8383937bb32b960611b6044820152606401610680565b6001600160a01b038216610c9c5760405162461bcd60e51b815260206004820152601360248201527222a921991824b73b30b634b229b832b73232b960691b6044820152606401610680565b610ca5816108d6565b610caf818361093f565b6001600160a01b038084165f81815260066020908152604080832094871680845294909152808220859055517f46f92913a39019d68e630493d23e0cf39761bf253f7b3f8eae384b33e393ed4e9190a3505050565b5f610d0e83610dd6565b610d1e57610d1b5f6107f0565b92505b610d2782610dd6565b610d3757610d345f6107f0565b91505b6105b0600684846008610ddf565b6001600160a01b038084165f90815260066020908152604080832093861683529290529081205481610d778285611196565b90505f610d848383610895565b9050610d8f816108d6565b610d99818761093f565b6001600160a01b038088165f908152600660209081526040808320938a16835292905220559150509392505050565b5f5f610627846006856111d7565b5f81151561057b565b5f73ea30c4b8b44078bbf8a6ef5b9f1ec1626c7848d9631888debd8684610e06888861127c565b604080515f815260208101918290526001600160e01b031960e087901b16909152610e37939291906024810161183f565b6020604051808303815f875af1158015610e53573d5f5f3e3d5ffd5b505050506040513d601f19601f820116820180604052508101906107d69190611899565b5f61057b825f6112e9565b5f73ea30c4b8b44078bbf8a6ef5b9f1ec1626c7848d9631888debd866004610e06888888611301565b6001600160a01b038416610ed45760405163e602df0560e01b81525f6004820152602401610680565b6001600160a01b038316610efd57604051634a1406b160e11b81525f6004820152602401610680565b6001600160a01b038085165f9081526001602090815260408083209387168352929052208290558015610a3a57826001600160a01b0316846001600160a01b03167f8c5be1e5ebec7d5bd14f71427d1e84f3dd0314c0f7b2291e5b200ac8c7c3b92584604051610f6f91815260200190565b60405180910390a350505050565b6001600160a01b038316610fa7578060025f828254610f9c91906118b0565b909155506110179050565b6001600160a01b0383165f9081526020819052604090205481811015610ff95760405163391434e360e21b81526001600160a01b03851660048201526024810182905260448101839052606401610680565b6001600160a01b0384165f9081526020819052604090209082900390555b6001600160a01b03821661103357600280548290039055611051565b6001600160a01b0382165f9081526020819052604090208054820190555b816001600160a01b0316836001600160a01b03167fddf252ad1be2c89b69c2b068fc378daa952ba7f163c4a11628f55a4df523b3ef8360405161109691815260200190565b60405180910390a3505050565b5f6110ad83610dd6565b6110bd576110ba5f6107f0565b92505b6110c682610dd6565b6110d6576110d35f6107f0565b91505b6105b0600684846013610ddf565b8060ff168260ff1614611117576040516367cf307160e01b815260ff808416600483015282166024820152604401610680565b5050565b6040516313fce3b160e11b81525f9073ea30c4b8b44078bbf8a6ef5b9f1ec1626c7848d9906327f9c7629061115690859033906004016118c3565b6020604051808303815f875af1158015611172573d5f5f3e3d5ffd5b505050506040513d601f19601f8201168201806040525081019061057b9190611899565b5f6111a083610dd6565b6111b0576111ad5f6107f0565b92505b6111b982610dd6565b6111c9576111c65f6107f0565b91505b6105b0600684846016610ddf565b604080515f8082526020820190925273ea30c4b8b44078bbf8a6ef5b9f1ec1626c7848d990631888debd908590601a9061121d898960ff166112188a611392565b6113c7565b6040518563ffffffff1660e01b815260040161123c949392919061183f565b6020604051808303815f875af1158015611258573d5f5f3e3d5ffd5b505050506040513d601f19601f820116820180604052508101906106279190611899565b60408051600280825260608083018452925f929190602083019080368337019050509050835f1c815f815181106112b5576112b561191a565b602002602001018181525050825f1c816001815181106112d7576112d761191a565b60209081029190910101529392505050565b5f8083156112f5575060015b5f6107d6825f866111d7565b604080516003808252608082019092526060915f9190602082018480368337019050509050845f1c815f8151811061133b5761133b61191a565b602002602001018181525050835f1c8160018151811061135d5761135d61191a565b602002602001018181525050825f1c8160028151811061137f5761137f61191a565b6020908102919091010152949350505050565b5f5f8260030b12156113bd576040516311ead17f60e31b8152600383900b6004820152602401610680565b5063ffffffff1690565b604080516003808252608082019092526060915f919060208201848036833701905050905084815f815181106113ff576113ff61191a565b602002602001018181525050838160018151811061141f5761141f61191a565b602002602001018181525050828160028151811061137f5761137f61191a565b5f6020828403121561144f575f5ffd5b81356001600160801b03811681146105b0575f5ffd5b5f81518084528060208401602086015e5f602082860101526020601f19601f83011685010191505092915050565b602081525f6105b06020830184611465565b80356001600160a01b03811681146114bb575f5ffd5b919050565b5f5f604083850312156114d1575f5ffd5b6114da836114a5565b946020939093013593505050565b5f5f5f606084860312156114fa575f5ffd5b611503846114a5565b9250611511602085016114a5565b929592945050506040919091013590565b5f60808284031215611532575f5ffd5b50919050565b5f5f60408385031215611549575f5ffd5b611552836114a5565b9150602083013567ffffffffffffffff81111561156d575f5ffd5b61157985828601611522565b9150509250929050565b5f60208284031215611593575f5ffd5b6105b0826114a5565b5f5f604083850312156115ad575f5ffd5b6115b6836114a5565b91506115c4602084016114a5565b90509250929050565b5f5f5f606084860312156115df575f5ffd5b6115e8846114a5565b92506115f6602085016114a5565b9150604084013567ffffffffffffffff811115611611575f5ffd5b61161d86828701611522565b9150509250925092565b634e487b7160e01b5f52601160045260245ffd5b808202811582820484141761057b5761057b611627565b600181811c9082168061166657607f821691505b60208210810361153257634e487b7160e01b5f52602260045260245ffd5b634e487b7160e01b5f52604160045260245ffd5b6040516080810167ffffffffffffffff811182821017156116bb576116bb611684565b60405290565b604051601f8201601f1916810167ffffffffffffffff811182821017156116ea576116ea611684565b604052919050565b803560ff811681146114bb575f5ffd5b5f60808236031215611712575f5ffd5b61171a611698565b8235815261172a602084016116f2565b602082015261173b604084016116f2565b6040820152606083013567ffffffffffffffff811115611759575f5ffd5b830136601f820112611769575f5ffd5b803567ffffffffffffffff81111561178357611783611684565b611796601f8201601f19166020016116c1565b8181523660208385010111156117aa575f5ffd5b816020840160208301375f9181016020019190915260608301525092915050565b634e487b7160e01b5f52601260045260245ffd5b5f826117ed576117ed6117cb565b500690565b5f82611800576118006117cb565b500490565b5f8151808452602084019350602083015f5b82811015611835578151865260209586019590910190600101611817565b5093949350505050565b60ff851681525f6020851061186257634e487b7160e01b5f52602160045260245ffd5b8460208301526080604083015261187c6080830185611805565b828103606084015261188e8185611805565b979650505050505050565b5f602082840312156118a9575f5ffd5b5051919050565b8082018082111561057b5761057b611627565b604081528251604082015260ff602084015116606082015260ff60408401511660808201525f6060840151608060a084015261190260c0840182611465565b91505060018060a01b03831660208301529392505050565b634e487b7160e01b5f52603260045260245ffdfea2646970667358221220cdc3a0d024bcb3e286c2bacc4624f0e67a34fe53787eddfe6ec6276d4fc77f3064736f6c634300081c0033",
  "linkReferences": {},
  "deployedLinkReferences": {}
}