{
  "_format": "hh-sol-artifact-1",
  "contractName": "PrivacyPresaleFactory",
  "sourceName": "contracts/PrivacyPresaleFactory.sol",
  "abi": [
    {
      "inputs": [
        {
          "internalType": "address",
          "name": "_cweth",
          "type": "address"
        }
      ],
      "stateMutability": "nonpayable",
      "type": "constructor"
    },
    {
      "inputs": [
        {
          "internalType": "address",
          "name": "token",
          "type": "address"
        }
      ],
      "name": "SafeERC20FailedOperation",
      "type": "error"
    },
    {
      "anonymous": false,
      "inputs": [
        {
          "indexed": true,
          "internalType": "address",
          "name": "creator",
          "type": "address"
        },
        {
          "indexed": false,
          "internalType": "address",
          "name": "presale",
          "type": "address"
        },
        {
          "indexed": false,
          "internalType": "address",
          "name": "token",
          "type": "address"
        },
        {
          "indexed": false,
          "internalType": "address",
          "name": "ctoken",
          "type": "address"
        },
        {
          "indexed": false,
          "internalType": "address",
          "name": "cweth",
          "type": "address"
        }
      ],
      "name": "PrivacyPresaleCreated",
      "type": "event"
    },
    {
      "inputs": [
        {
          "internalType": "address",
          "name": "_token",
          "type": "address"
        },
        {
          "components": [
            {
              "internalType": "uint256",
              "name": "tokenPresale",
              "type": "uint256"
            },
            {
              "internalType": "uint256",
              "name": "tokenAddLiquidity",
              "type": "uint256"
            },
            {
              "internalType": "uint128",
              "name": "softCap",
              "type": "uint128"
            },
            {
              "internalType": "uint128",
              "name": "hardCap",
              "type": "uint128"
            },
            {
              "internalType": "uint128",
              "name": "minContribution",
              "type": "uint128"
            },
            {
              "internalType": "uint128",
              "name": "maxContribution",
              "type": "uint128"
            },
            {
              "internalType": "uint128",
              "name": "start",
              "type": "uint128"
            },
            {
              "internalType": "uint128",
              "name": "end",
              "type": "uint128"
            },
            {
              "internalType": "uint16",
              "name": "liquidityPercentage",
              "type": "uint16"
            },
            {
              "internalType": "uint256",
              "name": "listingRate",
              "type": "uint256"
            }
          ],
          "internalType": "struct PrivacyPresale.Options",
          "name": "_options",
          "type": "tuple"
        }
      ],
      "name": "createPrivacyPresaleWithExistingToken",
      "outputs": [
        {
          "internalType": "address",
          "name": "presale",
          "type": "address"
        }
      ],
      "stateMutability": "nonpayable",
      "type": "function"
    },
    {
      "inputs": [],
      "name": "cweth",
      "outputs": [
        {
          "internalType": "address",
          "name": "",
          "type": "address"
        }
      ],
      "stateMutability": "view",
      "type": "function"
    },
    {
      "inputs": [],
      "name": "getPresales",
      "outputs": [
        {
          "internalType": "address[]",
          "name": "",
          "type": "address[]"
        }
      ],
      "stateMutability": "view",
      "type": "function"
    },
    {
      "inputs": [
        {
          "internalType": "uint256",
          "name": "",
          "type": "uint256"
        }
      ],
      "name": "presales",
      "outputs": [
        {
          "internalType": "address",
          "name": "",
          "type": "address"
        }
      ],
      "stateMutability": "view",
      "type": "function"
    }
  ],
  "bytecode": "0x6080604052348015600e575f5ffd5b50604051614c07380380614c07833981016040819052602b9160a8565b6001600160a01b03811660845760405162461bcd60e51b815260206004820152601560248201527f496e76616c696420637765746820616464726573730000000000000000000000604482015260640160405180910390fd5b600180546001600160a01b0319166001600160a01b039290921691909117905560d3565b5f6020828403121560b7575f5ffd5b81516001600160a01b038116811460cc575f5ffd5b9392505050565b614b27806100e05f395ff3fe608060405234801561000f575f5ffd5b506004361061004a575f3560e01c80637dbfb36d1461004e578063816605711461007e578063afe6f15014610093578063e18e9e14146100a6575b5f5ffd5b61006161005c366004610564565b6100b9565b6040516001600160a01b0390911681526020015b60405180910390f35b6100866100e0565b604051610075919061057b565b6100616100a1366004610661565b61013f565b600154610061906001600160a01b031681565b5f81815481106100c7575f80fd5b5f918252602090912001546001600160a01b0316905081565b60605f80548060200260200160405190810160405280929190818152602001828054801561013557602002820191905f5260205f20905b81546001600160a01b03168152600190910190602001808311610117575b5050505050905090565b5f5f836001600160a01b03166306fdde036040518163ffffffff1660e01b81526004015f60405180830381865afa15801561017c573d5f5f3e3d5ffd5b505050506040513d5f823e601f3d908101601f191682016040526101a39190810190610747565b6040516020016101b391906107f2565b604051602081830303815290604052846001600160a01b03166395d89b416040518163ffffffff1660e01b81526004015f60405180830381865afa1580156101fd573d5f5f3e3d5ffd5b505050506040513d5f823e601f3d908101601f191682016040526102249190810190610747565b604051602001610234919061081a565b604051602081830303815290604052856040516102509061054a565b61025c9392919061085d565b604051809103905ff080158015610275573d5f5f3e3d5ffd5b5090505f60015f9054906101000a90046001600160a01b03168286863360405161029e90610557565b6001600160a01b039586168152938516602080860191909152928516604080860191909152825160608087019190915293830151608080870191909152908301516001600160801b0390811660a08088019190915294840151811660c08088019190915291840151811660e0808801919091529484015181166101008088019190915291840151811661012080880191909152948401511661014086015282015161ffff166101608501529101516101808301529091166101a08201526101c001604051809103905ff080158015610378573d5f5f3e3d5ffd5b5060405163f2fde38b60e01b81523360048201529091506001600160a01b0382169063f2fde38b906024015f604051808303815f87803b1580156103ba575f5ffd5b505af11580156103cc573d5f5f3e3d5ffd5b505050506103fa3382865f015187602001516103e891906108ac565b6001600160a01b03891692919061049d565b5f8054600180820183559180527f290decd9548b62a8d60345a988386fc84ba6bc95484008f6362f93160ef3e5630180546001600160a01b0319166001600160a01b0384811691821790925591546040805193845288831660208501528583169084015216606082015233907f3851747ee9919eea117ccb6e4d6d5a1d123fd6779f3943e5a88b39edefc9312e9060800160405180910390a29150505b92915050565b6104ab8484848460016104dd565b6104d757604051635274afe760e01b81526001600160a01b038516600482015260240160405180910390fd5b50505050565b6040516323b872dd60e01b5f8181526001600160a01b038781166004528616602452604485905291602083606481808c5af1925060015f5114831661053957838315161561052d573d5f823e3d81fd5b5f883b113d1516831692505b604052505f60605295945050505050565b612089806108cc83390190565b61219d8061295583390190565b5f60208284031215610574575f5ffd5b5035919050565b602080825282518282018190525f918401906040840190835b818110156105bb5783516001600160a01b0316835260209384019390920191600101610594565b509095945050505050565b634e487b7160e01b5f52604160045260245ffd5b604051610140810167ffffffffffffffff811182821017156105fe576105fe6105c6565b60405290565b604051601f8201601f1916810167ffffffffffffffff8111828210171561062d5761062d6105c6565b604052919050565b80356001600160801b038116811461064b575f5ffd5b919050565b803561ffff8116811461064b575f5ffd5b5f5f828403610160811215610674575f5ffd5b83356001600160a01b038116811461068a575f5ffd5b9250610140601f198201121561069e575f5ffd5b506106a76105da565b60208481013582526040850135908201526106c460608501610635565b60408201526106d560808501610635565b60608201526106e660a08501610635565b60808201526106f760c08501610635565b60a082015261070860e08501610635565b60c082015261071a6101008501610635565b60e082015261072c6101208501610650565b61010082015261014093909301356101208401525092909150565b5f60208284031215610757575f5ffd5b815167ffffffffffffffff81111561076d575f5ffd5b8201601f8101841361077d575f5ffd5b805167ffffffffffffffff811115610797576107976105c6565b6107aa601f8201601f1916602001610604565b8181528560208385010111156107be575f5ffd5b8160208401602083015e5f91810160200191909152949350505050565b5f81518060208401855e5f93019283525090919050565b6c021b7b73334b232b73a34b0b61609d1b81525f610813600d8301846107db565b9392505050565b606360f81b81525f61081360018301846107db565b5f81518084528060208401602086015e5f602082860101526020601f19601f83011685010191505092915050565b608081525f61086f608083018661082f565b8281036020840152610881818661082f565b83810360408501525f81526001600160a01b0394909416606090930192909252505060200192915050565b8082018082111561049757634e487b7160e01b5f52601160045260245ffdfe60c060405234801561000f575f5ffd5b5060405161208938038061208983398101604081905261002e9161037d565b8383600361003c83826104ad565b50600461004982826104ad565b5050506001600160a01b03811660a08190526040805163313ce56760e01b8152905163313ce567916004808201926020929091908290030181865afa9250505080156100b2575060408051601f3d908101601f191682019092526100af91810190610567565b60015b6100c05760126080526100c7565b60ff166080525b6100d05f6100e7565b60078190556100de906100f8565b5050505061064d565b5f6100f28282610161565b92915050565b604051631974142760e21b81526004810182905230602482015273ea30c4b8b44078bbf8a6ef5b9f1ec1626c7848d9906365d0509c906044015f604051808303815f87803b158015610148575f5ffd5b505af115801561015a573d5f5f3e3d5ffd5b5050505050565b5f8061016f84600685610177565b949350505050565b604080515f8082526020820190925273ea30c4b8b44078bbf8a6ef5b9f1ec1626c7848d990631888debd908590601a906101bd8960ff8a166101b88a61021c565b610255565b6040518563ffffffff1660e01b81526004016101dc94939291906105c8565b6020604051808303815f875af11580156101f8573d5f5f3e3d5ffd5b505050506040513d601f19601f8201168201806040525081019061016f9190610622565b5f5f8260030b121561024b576040516311ead17f60e31b8152600383900b600482015260240160405180910390fd5b5063ffffffff1690565b604080516003808252608082019092526060915f919060208201848036833701905050905084815f8151811061028d5761028d610639565b60200260200101818152505083816001815181106102ad576102ad610639565b60200260200101818152505082816002815181106102cd576102cd610639565b6020908102919091010152949350505050565b634e487b7160e01b5f52604160045260245ffd5b5f82601f830112610303575f5ffd5b81516001600160401b0381111561031c5761031c6102e0565b604051601f8201601f19908116603f011681016001600160401b038111828210171561034a5761034a6102e0565b604052818152838201602001851015610361575f5ffd5b8160208501602083015e5f918101602001919091529392505050565b5f5f5f5f60808587031215610390575f5ffd5b84516001600160401b038111156103a5575f5ffd5b6103b1878288016102f4565b602087015190955090506001600160401b038111156103ce575f5ffd5b6103da878288016102f4565b604087015190945090506001600160401b038111156103f7575f5ffd5b610403878288016102f4565b606087015190935090506001600160a01b0381168114610421575f5ffd5b939692955090935050565b600181811c9082168061044057607f821691505b60208210810361045e57634e487b7160e01b5f52602260045260245ffd5b50919050565b601f8211156104a857805f5260205f20601f840160051c810160208510156104895750805b601f840160051c820191505b8181101561015a575f8155600101610495565b505050565b81516001600160401b038111156104c6576104c66102e0565b6104da816104d4845461042c565b84610464565b6020601f82116001811461050c575f83156104f55750848201515b5f19600385901b1c1916600184901b17845561015a565b5f84815260208120601f198516915b8281101561053b578785015182556020948501946001909201910161051b565b508482101561055857868401515f19600387901b60f8161c191681555b50505050600190811b01905550565b5f60208284031215610577575f5ffd5b815160ff81168114610587575f5ffd5b9392505050565b5f8151808452602084019350602083015f5b828110156105be5781518652602095860195909101906001016105a0565b5093949350505050565b60ff851681525f602085106105eb57634e487b7160e01b5f52602160045260245ffd5b84602083015260806040830152610605608083018561058e565b8281036060840152610617818561058e565b979650505050505050565b5f60208284031215610632575f5ffd5b5051919050565b634e487b7160e01b5f52603260045260245ffd5b60805160a051611a0d61067c5f395f81816101a0015281816103e5015261061301525f6101f40152611a0d5ff3fe608060405234801561000f575f5ffd5b506004361061011c575f3560e01c80636e553f65116100a9578063dd62ed3e1161006e578063dd62ed3e1461029a578063e1a136d5146102d2578063f4621a7e146102e5578063f917aa571461031d578063fe229cbe14610330575f5ffd5b80636e553f651461023157806370a082311461024457806395d89b4114610257578063a9059cbb1461025f578063c33d0b5614610272575f5ffd5b806323b872dd116100ef57806323b872dd146101885780632495a5991461019b578063303111aa146101da578063313ce567146101ed57806363c05a331461021e575f5ffd5b806302387a7b1461012057806306fdde0314610135578063095ea7b31461015357806318160ddd14610176575b5f5ffd5b61013361012e366004611520565b610343565b005b61013d61045e565b60405161014a9190611574565b60405180910390f35b6101666101613660046115a1565b6104ee565b604051901515815260200161014a565b6002545b60405190815260200161014a565b6101666101963660046115c9565b610507565b6101c27f000000000000000000000000000000000000000000000000000000000000000081565b6040516001600160a01b03909116815260200161014a565b61017a6101e83660046115a1565b61052a565b60405160ff7f000000000000000000000000000000000000000000000000000000000000000016815260200161014a565b61016661022c366004611619565b61053d565b61013361023f366004611664565b610562565b61017a61025236600461168e565b610710565b61013d61072d565b61016661026d3660046115a1565b61073c565b61017a61028036600461168e565b6001600160a01b03165f9081526005602052604090205490565b61017a6102a83660046116a7565b6001600160a01b039182165f90815260016020908152604080832093909416825291909152205490565b61017a6102e03660046116cf565b610749565b61017a6102f33660046116a7565b6001600160a01b039182165f90815260066020908152604080832093909416825291909152205490565b61017a61032b3660046115c9565b610763565b61017a61033e366004611619565b610786565b5f610356826001600160801b0316610797565b335f9081526005602052604081205491925061037282846107a2565b90505f61038882856103835f610797565b6107e3565b90505f610395848361083c565b90506103a08161087d565b6103aa81336108e6565b335f9081526005602052604081208290556007546103c8908461083c565b90506103d38161087d565b60078190556104156001600160a01b037f000000000000000000000000000000000000000000000000000000000000000016336001600160801b038a16610959565b6040516001600160801b0388168152339081907ff7c94207a71e9e28815faa70ca42021f47a1d25c25fbec0973eb7beb92f421929060200160405180910390a350505050505050565b60606003805461046d90611729565b80601f016020809104026020016040519081016040528092919081815260200182805461049990611729565b80156104e45780601f106104bb576101008083540402835291602001916104e4565b820191905f5260205f20905b8154815290600101906020018083116104c757829003601f168201915b5050505050905090565b5f336104fb818585610993565b60019150505b92915050565b5f336105148582856109a0565b61051f858585610a1c565b506001949350505050565b5f610536338484610a79565b9392505050565b5f610559338461055461054f866117d9565b610b79565b610bdf565b50600192915050565b5f82116105b65760405162461bcd60e51b815260206004820152601d60248201527f416d6f756e74206d7573742062652067726561746572207468616e203000000060448201526064015b60405180910390fd5b6001600160801b038211156106065760405162461bcd60e51b8152602060048201526016602482015275082dadeeadce840caf0c6cacac8e640ead2dce86264760531b60448201526064016105ad565b61063b6001600160a01b037f000000000000000000000000000000000000000000000000000000000000000016333085610ce0565b815f61064f6001600160801b038316610797565b6001600160a01b0384165f90815260056020526040812054919250906106759083610d16565b90506106808161087d565b61068a81856108e6565b6001600160a01b0384165f9081526005602052604081208290556007546106b19084610d16565b90506106bc8161087d565b60078190556040516001600160801b03851681526001600160a01b038616907fc6dcd8d437d8b3537583463d84a6ba9d7e3e013fa4e004da9b6dee1482038be59060200160405180910390a2505050505050565b6001600160a01b0381165f90815260208190526040812054610501565b60606004805461046d90611729565b5f336104fb818585610a1c565b5f61075b848461032b61054f866117d9565b949350505050565b5f5f610770853385610d57565b905061077d858583610a79565b95945050505050565b5f610536836101e861054f856117d9565b5f610501825f610dda565b5f6107ac83610de8565b6107bc576107b95f610797565b92505b6107c582610de8565b6107d5576107d25f610797565b91505b610536600684846012610df1565b5f6107ed84610de8565b6107fd576107fa5f610e89565b93505b61080683610de8565b610816576108135f610797565b92505b61081f82610de8565b61082f5761082c5f610797565b91505b61075b6006858585610e94565b5f61084683610de8565b610856576108535f610797565b92505b61085f82610de8565b61086f5761086c5f610797565b91505b610536600684846007610df1565b604051631974142760e21b81526004810182905230602482015273ea30c4b8b44078bbf8a6ef5b9f1ec1626c7848d9906365d0509c906044015f604051808303815f87803b1580156108cd575f5ffd5b505af11580156108df573d5f5f3e3d5ffd5b5050505050565b604051631974142760e21b8152600481018390526001600160a01b038216602482015273ea30c4b8b44078bbf8a6ef5b9f1ec1626c7848d9906365d0509c906044015f604051808303815f87803b15801561093f575f5ffd5b505af1158015610951573d5f5f3e3d5ffd5b505050505050565b6109668383836001610ebd565b61098e57604051635274afe760e01b81526001600160a01b03841660048201526024016105ad565b505050565b61098e8383836001610f1f565b6001600160a01b038381165f908152600160209081526040808320938616835292905220545f19811015610a165781811015610a0857604051637dc7a0d960e11b81526001600160a01b038416600482015260248101829052604481018390526064016105ad565b610a1684848484035f610f1f565b50505050565b6001600160a01b038316610a4557604051634b637e8f60e11b81525f60048201526024016105ad565b6001600160a01b038216610a6e5760405163ec442f0560e01b81525f60048201526024016105ad565b61098e838383610ff1565b6001600160a01b0383165f908152600560205260408120548190610aac90610aa2908590611117565b846103835f610797565b6001600160a01b0386165f9081526005602052604081205491925090610ad2908361083c565b6001600160a01b0386165f9081526005602052604081205491925090610af89084610d16565b9050610b038261087d565b610b0c8161087d565b610b1682886108e6565b610b2081876108e6565b6001600160a01b038088165f8181526005602052604080822086905592891680825283822085905592517f7612539b010127d1a2f810eeff1131de23a28ecfa8228f92a9606a879300fbb59190a3509095945050505050565b5f610b8982604001516006611158565b60408051608080820183525f808352602080840182905283850191909152606092830183905283519182018452855182528086015160ff169082015260069281019290925280840151908201526105019061118f565b6001600160a01b038316610c2c5760405162461bcd60e51b815260206004820152601460248201527322a921991824b73b30b634b220b8383937bb32b960611b60448201526064016105ad565b6001600160a01b038216610c785760405162461bcd60e51b815260206004820152601360248201527222a921991824b73b30b634b229b832b73232b960691b60448201526064016105ad565b610c818161087d565b610c8b81836108e6565b6001600160a01b038084165f81815260066020908152604080832094871680845294909152808220859055517f46f92913a39019d68e630493d23e0cf39761bf253f7b3f8eae384b33e393ed4e9190a3505050565b610cee84848484600161120a565b610a1657604051635274afe760e01b81526001600160a01b03851660048201526024016105ad565b5f610d2083610de8565b610d3057610d2d5f610797565b92505b610d3982610de8565b610d4957610d465f610797565b91505b610536600684846008610df1565b6001600160a01b038084165f90815260066020908152604080832093861683529290529081205481610d898285611277565b90505f610d96838361083c565b9050610da18161087d565b610dab81876108e6565b6001600160a01b038088165f908152600660209081526040808320938a16835292905220559150509392505050565b5f5f61075b846006856112b8565b5f811515610501565b5f73ea30c4b8b44078bbf8a6ef5b9f1ec1626c7848d9631888debd8684610e18888861135d565b604080515f815260208101918290526001600160e01b031960e087901b16909152610e4993929190602481016118dc565b6020604051808303815f875af1158015610e65573d5f5f3e3d5ffd5b505050506040513d601f19601f8201168201806040525081019061077d9190611936565b5f610501825f6113ca565b5f73ea30c4b8b44078bbf8a6ef5b9f1ec1626c7848d9631888debd866004610e188888886113e2565b60405163a9059cbb60e01b5f8181526001600160a01b038616600452602485905291602083604481808b5af1925060015f51148316610f13578383151615610f07573d5f823e3d81fd5b5f873b113d1516831692505b60405250949350505050565b6001600160a01b038416610f485760405163e602df0560e01b81525f60048201526024016105ad565b6001600160a01b038316610f7157604051634a1406b160e11b81525f60048201526024016105ad565b6001600160a01b038085165f9081526001602090815260408083209387168352929052208290558015610a1657826001600160a01b0316846001600160a01b03167f8c5be1e5ebec7d5bd14f71427d1e84f3dd0314c0f7b2291e5b200ac8c7c3b92584604051610fe391815260200190565b60405180910390a350505050565b6001600160a01b03831661101b578060025f828254611010919061194d565b9091555061108b9050565b6001600160a01b0383165f908152602081905260409020548181101561106d5760405163391434e360e21b81526001600160a01b038516600482015260248101829052604481018390526064016105ad565b6001600160a01b0384165f9081526020819052604090209082900390555b6001600160a01b0382166110a7576002805482900390556110c5565b6001600160a01b0382165f9081526020819052604090208054820190555b816001600160a01b0316836001600160a01b03167fddf252ad1be2c89b69c2b068fc378daa952ba7f163c4a11628f55a4df523b3ef8360405161110a91815260200190565b60405180910390a3505050565b5f61112183610de8565b6111315761112e5f610797565b92505b61113a82610de8565b61114a576111475f610797565b91505b610536600684846013610df1565b8060ff168260ff161461118b576040516367cf307160e01b815260ff8084166004830152821660248201526044016105ad565b5050565b6040516313fce3b160e11b81525f9073ea30c4b8b44078bbf8a6ef5b9f1ec1626c7848d9906327f9c762906111ca908590339060040161196c565b6020604051808303815f875af11580156111e6573d5f5f3e3d5ffd5b505050506040513d601f19601f820116820180604052508101906105019190611936565b6040516323b872dd60e01b5f8181526001600160a01b038781166004528616602452604485905291602083606481808c5af1925060015f5114831661126657838315161561125a573d5f823e3d81fd5b5f883b113d1516831692505b604052505f60605295945050505050565b5f61128183610de8565b6112915761128e5f610797565b92505b61129a82610de8565b6112aa576112a75f610797565b91505b610536600684846016610df1565b604080515f8082526020820190925273ea30c4b8b44078bbf8a6ef5b9f1ec1626c7848d990631888debd908590601a906112fe898960ff166112f98a611473565b6114a8565b6040518563ffffffff1660e01b815260040161131d94939291906118dc565b6020604051808303815f875af1158015611339573d5f5f3e3d5ffd5b505050506040513d601f19601f8201168201806040525081019061075b9190611936565b60408051600280825260608083018452925f929190602083019080368337019050509050835f1c815f81518110611396576113966119c3565b602002602001018181525050825f1c816001815181106113b8576113b86119c3565b60209081029190910101529392505050565b5f8083156113d6575060015b5f61077d825f866112b8565b604080516003808252608082019092526060915f9190602082018480368337019050509050845f1c815f8151811061141c5761141c6119c3565b602002602001018181525050835f1c8160018151811061143e5761143e6119c3565b602002602001018181525050825f1c81600281518110611460576114606119c3565b6020908102919091010152949350505050565b5f5f8260030b121561149e576040516311ead17f60e31b8152600383900b60048201526024016105ad565b5063ffffffff1690565b604080516003808252608082019092526060915f919060208201848036833701905050905084815f815181106114e0576114e06119c3565b6020026020010181815250508381600181518110611500576115006119c3565b6020026020010181815250508281600281518110611460576114606119c3565b5f60208284031215611530575f5ffd5b81356001600160801b0381168114610536575f5ffd5b5f81518084528060208401602086015e5f602082860101526020601f19601f83011685010191505092915050565b602081525f6105366020830184611546565b80356001600160a01b038116811461159c575f5ffd5b919050565b5f5f604083850312156115b2575f5ffd5b6115bb83611586565b946020939093013593505050565b5f5f5f606084860312156115db575f5ffd5b6115e484611586565b92506115f260208501611586565b929592945050506040919091013590565b5f60808284031215611613575f5ffd5b50919050565b5f5f6040838503121561162a575f5ffd5b61163383611586565b9150602083013567ffffffffffffffff81111561164e575f5ffd5b61165a85828601611603565b9150509250929050565b5f5f60408385031215611675575f5ffd5b8235915061168560208401611586565b90509250929050565b5f6020828403121561169e575f5ffd5b61053682611586565b5f5f604083850312156116b8575f5ffd5b6116c183611586565b915061168560208401611586565b5f5f5f606084860312156116e1575f5ffd5b6116ea84611586565b92506116f860208501611586565b9150604084013567ffffffffffffffff811115611713575f5ffd5b61171f86828701611603565b9150509250925092565b600181811c9082168061173d57607f821691505b60208210810361161357634e487b7160e01b5f52602260045260245ffd5b634e487b7160e01b5f52604160045260245ffd5b6040516080810167ffffffffffffffff811182821017156117925761179261175b565b60405290565b604051601f8201601f1916810167ffffffffffffffff811182821017156117c1576117c161175b565b604052919050565b803560ff8116811461159c575f5ffd5b5f608082360312156117e9575f5ffd5b6117f161176f565b82358152611801602084016117c9565b6020820152611812604084016117c9565b6040820152606083013567ffffffffffffffff811115611830575f5ffd5b830136601f820112611840575f5ffd5b803567ffffffffffffffff81111561185a5761185a61175b565b61186d601f8201601f1916602001611798565b818152366020838501011115611881575f5ffd5b816020840160208301375f9181016020019190915260608301525092915050565b5f8151808452602084019350602083015f5b828110156118d25781518652602095860195909101906001016118b4565b5093949350505050565b60ff851681525f602085106118ff57634e487b7160e01b5f52602160045260245ffd5b8460208301526080604083015261191960808301856118a2565b828103606084015261192b81856118a2565b979650505050505050565b5f60208284031215611946575f5ffd5b5051919050565b8082018082111561050157634e487b7160e01b5f52601160045260245ffd5b604081528251604082015260ff602084015116606082015260ff60408401511660808201525f6060840151608060a08401526119ab60c0840182611546565b91505060018060a01b03831660208301529392505050565b634e487b7160e01b5f52603260045260245ffdfea26469706673582212204e9248057d6b79e01f845eed7a738e8dfce9ecba444ece80af71484cb87d155c64736f6c634300081c0033608060405234801561000f575f5ffd5b5060405161219d38038061219d83398101604081905261002e91610495565b338061005457604051631e4fbdf760e01b81525f60048201526024015b60405180910390fd5b61005d816101da565b506001600160a01b0381166100b45760405162461bcd60e51b815260206004820152601560248201527f496e76616c69642070726573616c65206f776e65720000000000000000000000604482015260640161004b565b600280546001600160a01b03199081166001600160a01b0388811691909117909255600380548216878416179055600480548216868416179055835160058190556020850151600655604085015160608601516001600160801b03918216600160801b91831682810291909117600755608088015160a089015190841690841683021760085560c088015160e0890151908416931690910291909117600955610100860151600a805461ffff191661ffff909216919091179055610120860151600b55600180549093169385169390931790915561019291906105a1565b6010556011805460ff191660011790556101ab5f610229565b600c8190556101b99061023a565b6101c25f610229565b600d8190556101d09061023a565b505050505061067f565b5f80546001600160a01b038381166001600160a01b0319831681178455604051919092169283917f8be0079c531659141344cd1fd0a4f28419497f9722a3daafe3b4186f6b6457e09190a35050565b5f61023482826102a3565b92915050565b604051631974142760e21b81526004810182905230602482015273ea30c4b8b44078bbf8a6ef5b9f1ec1626c7848d9906365d0509c906044015f604051808303815f87803b15801561028a575f5ffd5b505af115801561029c573d5f5f3e3d5ffd5b5050505050565b5f806102b1846006856102b9565b949350505050565b604080515f8082526020820190925273ea30c4b8b44078bbf8a6ef5b9f1ec1626c7848d990631888debd908590601a906102ff8960ff8a166102fa8a61035e565b610393565b6040518563ffffffff1660e01b815260040161031e94939291906105fa565b6020604051808303815f875af115801561033a573d5f5f3e3d5ffd5b505050506040513d601f19601f820116820180604052508101906102b19190610654565b5f5f8260030b1215610389576040516311ead17f60e31b8152600383900b600482015260240161004b565b5063ffffffff1690565b604080516003808252608082019092526060915f919060208201848036833701905050905084815f815181106103cb576103cb61066b565b60200260200101818152505083816001815181106103eb576103eb61066b565b602002602001018181525050828160028151811061040b5761040b61066b565b6020908102919091010152949350505050565b80516001600160a01b0381168114610434575f5ffd5b919050565b60405161014081016001600160401b038111828210171561046857634e487b7160e01b5f52604160045260245ffd5b60405290565b80516001600160801b0381168114610434575f5ffd5b805161ffff81168114610434575f5ffd5b5f5f5f5f5f8587036101c08112156104ab575f5ffd5b6104b48761041e565b95506104c26020880161041e565b94506104d06040880161041e565b9350610140605f19820112156104e4575f5ffd5b506104ed610439565b606087015181526080870151602082015261050a60a0880161046e565b604082015261051b60c0880161046e565b606082015261052c60e0880161046e565b608082015261053e610100880161046e565b60a0820152610550610120880161046e565b60c0820152610562610140880161046e565b60e08201526105746101608801610484565b61010082015261018087015161012082015291506105956101a0870161041e565b90509295509295909350565b5f826105bb57634e487b7160e01b5f52601260045260245ffd5b500490565b5f8151808452602084019350602083015f5b828110156105f05781518652602095860195909101906001016105d2565b5093949350505050565b60ff851681525f6020851061061d57634e487b7160e01b5f52602160045260245ffd5b8460208301526080604083015261063760808301856105c0565b828103606084015261064981856105c0565b979650505050505050565b5f60208284031215610664575f5ffd5b5051919050565b634e487b7160e01b5f52603260045260245ffd5b611b118061068c5f395ff3fe608060405234801561000f575f5ffd5b50600436106100f0575f3560e01c8063715018a611610093578063cb65a4ce11610063578063cb65a4ce14610299578063e285947e146102a1578063f2fde38b146102b4578063f31a6491146102c7575f5ffd5b8063715018a61461025057806384d24226146102585780638a753a1f146102775780638da5cb5b1461027f575f5ffd5b80634e71d92d116100ce5780634e71d92d146102035780635052abad1461020d578063590e1ae31461023557806369c3495b1461023d575f5ffd5b806316f0115b146100f457806328651309146101d257806342e94c90146101e4575b5f5ffd5b6001546002546003546004546040805161014081018252600554815260065460208201526007546001600160801b0380821693830193909352600160801b90819004831660608301526008548084166080840152819004831660a083015260095480841660c08401520490911660e0820152600a5461ffff16610100820152600b54610120820152600c54600d54600e54600f546010546011546101b29a6001600160a01b039081169a811699811698169695949392919060ff168b565b6040516101c99b9a9998979695949392919061154b565b60405180910390f35b600d545b6040519081526020016101c9565b6101d66101f236600461166e565b60126020525f908152604090205481565b61020b6102ef565b005b6101d661021b36600461166e565b6001600160a01b03165f9081526012602052604090205490565b61020b6103f2565b61020b61024b366004611717565b6104ab565b61020b61085a565b6101d661026636600461166e565b60136020525f908152604090205481565b61020b61086d565b5f546040516001600160a01b0390911681526020016101c9565b600c546101d6565b61020b6102af366004611867565b610907565b61020b6102c236600461166e565b610cdb565b6101d66102d536600461166e565b6001600160a01b03165f9081526013602052604090205490565b60115460ff1660041461033a5760405162461bcd60e51b815260206004820152600e60248201526d139bdd081cdd58d8d95cdcd99d5b60921b60448201526064015b60405180910390fd5b335f908152601360205260408120549061035381610d18565b905061035e81610d29565b6103688133610d93565b335f8181526013602052604090819020839055600354905163181888d560e11b81526004810192909252602482018490526001600160a01b03169063303111aa906044015b6020604051808303815f875af11580156103c9573d5f5f3e3d5ffd5b505050506040513d601f19601f820116820180604052508101906103ed91906118f8565b505050565b60115460ff166003146104345760405162461bcd60e51b815260206004820152600a602482015269139bdd0819985a5b195960b21b6044820152606401610331565b335f908152601260205260408120549061044d81610d18565b905061045881610d29565b6104628133610d93565b335f8181526012602052604090819020839055600254905163181888d560e11b81526004810192909252602482018490526001600160a01b03169063303111aa906044016103ad565b60115460ff166001146104d05760405162461bcd60e51b81526004016103319061190f565b6009546001600160801b031642108015906104fd5750600954600160801b90046001600160801b03164211155b6105425760405162461bcd60e51b8152602060048201526016602482015275139bdd081a5b881c1d5c98da185cd9481c195c9a5bd960521b6044820152606401610331565b5f61054c82610dfe565b335f90815260126020526040812054600854929350916105859061057f90600160801b90046001600160801b0316610d18565b83610e64565b90505f6105928483610eac565b90505f6105a0828487610eed565b90505f6105ca6105b08684610f4e565b6008546105c5906001600160801b0316610d18565b610f8f565b90506105df816105d95f610d18565b84610eed565b60025460405163f917aa5760e01b8152336004820152306024820152604481018390529193506001600160a01b03169063f917aa57906064016020604051808303815f875af1158015610634573d5f5f3e3d5ffd5b505050506040513d601f19601f8201168201806040525081019061065891906118f8565b505f6106696001600b015484610f4e565b6007549091505f9061069590839061069090600160801b90046001600160801b0316610d18565b610eac565b6007549091505f906106d59083906106c79086906106c290600160801b90046001600160801b0316610d18565b610e64565b6106d05f610d18565b610eed565b90505f6106e28683610e64565b90505f6106ef8584610e64565b90506106fa81610d29565b600c81905560025460405163181888d560e11b8152336004820152602481018590526001600160a01b039091169063303111aa906044016020604051808303815f875af115801561074d573d5f5f3e3d5ffd5b505050506040513d601f19601f8201168201806040525081019061077191906118f8565b505f6107938361078e6001600f01546001600160801b0316610d18565b610fd0565b90505f6107a08c85610f4e565b90506107ab81610d29565b6107b58133610d93565b335f90815260126020908152604080832084905560139091528120546107db9084610f4e565b90506107e681610d29565b6107f08133610d93565b335f908152601360205260408120829055600d5461080e9085610f4e565b905061081981610d29565b600d81905560405133907fe0a6aa842218f0f35bf65f57bde43237bfa55acedad07dee3330832928e70b81905f90a250505050505050505050505050505050565b610862611011565b61086b5f61103d565b565b610875611011565b60115460ff1660011461089a5760405162461bcd60e51b81526004016103319061190f565b600954600160801b90046001600160801b031642116108ef5760405162461bcd60e51b8152602060048201526011602482015270141c995cd85b19481b9bdd08195b991959607a1b6044820152606401610331565b600c546108fb9061108c565b600d5461086b9061108c565b61090f611011565b60115460ff166001146109345760405162461bcd60e51b81526004016103319061190f565b600954600160801b90046001600160801b031642116109895760405162461bcd60e51b8152602060048201526011602482015270141c995cd85b19481b9bdd08195b991959607a1b6044820152606401610331565b6011805460ff19166002179055600c54604080516020601f88018190048102820181019092528681526109d9929189919089908990819084018382808284375f920191909152506110c492505050565b610a1e6001600c01548484848080601f0160208091040260200160405190810160405280939291908181526020018383808284375f920191909152506110c492505050565b610a356001600160801b038716633b9aca00611947565b600e556001600160801b03808416600f5560075481169087161015610ae0576011805460ff191660031790556004805460015460055460405163a9059cbb60e01b81526001600160a01b03928316948101949094526024840152169063a9059cbb906044016020604051808303815f875af1158015610ab6573d5f5f3e3d5ffd5b505050506040513d601f19601f82011682018060405250810190610ada919061195e565b50610cd3565b6011805460ff191660041790556005545f90610b06906001600160801b0386169061197d565b90508015610b88576004805460015460405163a9059cbb60e01b81526001600160a01b039182169381019390935260248301849052169063a9059cbb906044016020604051808303815f875af1158015610b62573d5f5f3e3d5ffd5b505050506040513d601f19601f82011682018060405250810190610b86919061195e565b505b6004805460035460405163095ea7b360e01b81526001600160a01b03918216938101939093526001600160801b0387166024840152169063095ea7b3906044016020604051808303815f875af1158015610be4573d5f5f3e3d5ffd5b505050506040513d601f19601f82011682018060405250810190610c08919061195e565b50600354604051636e553f6560e01b81526001600160801b03861660048201523060248201526001600160a01b0390911690636e553f65906044015f604051808303815f87803b158015610c5a575f5ffd5b505af1158015610c6c573d5f5f3e3d5ffd5b50506002546040516302387a7b60e01b81526001600160801b038b1660048201526001600160a01b0390911692506302387a7b91506024015f604051808303815f87803b158015610cbb575f5ffd5b505af1158015610ccd573d5f5f3e3d5ffd5b50505050505b505050505050565b610ce3611011565b6001600160a01b038116610d0c57604051631e4fbdf760e01b81525f6004820152602401610331565b610d158161103d565b50565b5f610d23825f6110d8565b92915050565b604051631974142760e21b81526004810182905230602482015273ea30c4b8b44078bbf8a6ef5b9f1ec1626c7848d9906365d0509c906044015b5f604051808303815f87803b158015610d7a575f5ffd5b505af1158015610d8c573d5f5f3e3d5ffd5b5050505050565b604051631974142760e21b8152600481018390526001600160a01b038216602482015273ea30c4b8b44078bbf8a6ef5b9f1ec1626c7848d9906365d0509c906044015f604051808303815f87803b158015610dec575f5ffd5b505af1158015610cd3573d5f5f3e3d5ffd5b5f610e0e826040015160066110e6565b60408051608080820183525f808352602080840182905283850191909152606092830183905283519182018452855182528086015160ff16908201526006928101929092528084015190820152610d239061111d565b5f610e6e83611198565b610e7e57610e7b5f610d18565b92505b610e8782611198565b610e9757610e945f610d18565b91505b610ea56006848460076111a1565b9392505050565b5f610eb683611198565b610ec657610ec35f610d18565b92505b610ecf82611198565b610edf57610edc5f610d18565b91505b610ea56006848460126111a1565b5f610ef784611198565b610f0757610f045f611242565b93505b610f1083611198565b610f2057610f1d5f610d18565b92505b610f2982611198565b610f3957610f365f610d18565b91505b610f46600685858561124d565b949350505050565b5f610f5883611198565b610f6857610f655f610d18565b92505b610f7182611198565b610f8157610f7e5f610d18565b91505b610ea56006848460086111a1565b5f610f9983611198565b610fa957610fa65f610d18565b92505b610fb282611198565b610fc257610fbf5f610d18565b91505b610ea56006848460146111a1565b5f610fda83611198565b610fea57610fe75f610d18565b92505b610ff382611198565b611003576110005f610d18565b91505b610ea560068484600f6111a1565b5f546001600160a01b0316331461086b5760405163118cdaa760e01b8152336004820152602401610331565b5f80546001600160a01b038381166001600160a01b0319831681178455604051919092169283917f8be0079c531659141344cd1fd0a4f28419497f9722a3daafe3b4186f6b6457e09190a35050565b604051631a778f2d60e11b81526004810182905273ea30c4b8b44078bbf8a6ef5b9f1ec1626c7848d9906334ef1e5a90602401610d63565b6103ed83836001600160801b031683611276565b5f5f610f46846006856112e3565b8060ff168260ff1614611119576040516367cf307160e01b815260ff808416600483015282166024820152604401610331565b5050565b6040516313fce3b160e11b81525f9073ea30c4b8b44078bbf8a6ef5b9f1ec1626c7848d9906327f9c7629061115890859033906004016119be565b6020604051808303815f875af1158015611174573d5f5f3e3d5ffd5b505050506040513d601f19601f82011682018060405250810190610d2391906118f8565b5f811515610d23565b5f73ea30c4b8b44078bbf8a6ef5b9f1ec1626c7848d9631888debd86846111c88888611388565b604080515f815260208101918290526001600160e01b031960e087901b169091526111f99392919060248101611a4f565b6020604051808303815f875af1158015611215573d5f5f3e3d5ffd5b505050506040513d601f19601f8201168201806040525081019061123991906118f8565b95945050505050565b5f610d23825f6113f5565b5f73ea30c4b8b44078bbf8a6ef5b9f1ec1626c7848d9631888debd8660046111c888888861140d565b604051631868370160e01b815273ea30c4b8b44078bbf8a6ef5b9f1ec1626c7848d9906318683701906112b190869086908690600401611aa9565b5f604051808303815f87803b1580156112c8575f5ffd5b505af11580156112da573d5f5f3e3d5ffd5b50505050505050565b604080515f8082526020820190925273ea30c4b8b44078bbf8a6ef5b9f1ec1626c7848d990631888debd908590601a90611329898960ff166113248a61149e565b6114d3565b6040518563ffffffff1660e01b81526004016113489493929190611a4f565b6020604051808303815f875af1158015611364573d5f5f3e3d5ffd5b505050506040513d601f19601f82011682018060405250810190610f4691906118f8565b60408051600280825260608083018452925f929190602083019080368337019050509050835f1c815f815181106113c1576113c1611ac7565b602002602001018181525050825f1c816001815181106113e3576113e3611ac7565b60209081029190910101529392505050565b5f808315611401575060015b5f611239825f866112e3565b604080516003808252608082019092526060915f9190602082018480368337019050509050845f1c815f8151811061144757611447611ac7565b602002602001018181525050835f1c8160018151811061146957611469611ac7565b602002602001018181525050825f1c8160028151811061148b5761148b611ac7565b6020908102919091010152949350505050565b5f5f8260030b12156114c9576040516311ead17f60e31b8152600383900b6004820152602401610331565b5063ffffffff1690565b604080516003808252608082019092526060915f919060208201848036833701905050905084815f8151811061150b5761150b611ac7565b602002602001018181525050838160018151811061152b5761152b611ac7565b602002602001018181525050828160028151811061148b5761148b611ac7565b6001600160a01b038c811682528b81166020808401919091528b8216604080850191909152918b1660608401528951608084015289015160a08301528801516001600160801b03811660c08301526102808201905060608901516001600160801b03811660e08401525060808901516001600160801b0381166101008401525060a08901516001600160801b0381166101208401525060c08901516001600160801b0381166101408401525060e08901516001600160801b0381166101608401525061010089015161ffff8116610180840152506101208901516101a0830152876101c0830152866101e083015285610200830152846102208301528361024083015261165e61026083018460ff169052565b9c9b505050505050505050505050565b5f6020828403121561167e575f5ffd5b81356001600160a01b0381168114610ea5575f5ffd5b634e487b7160e01b5f52604160045260245ffd5b6040516080810167ffffffffffffffff811182821017156116cb576116cb611694565b60405290565b604051601f8201601f1916810167ffffffffffffffff811182821017156116fa576116fa611694565b604052919050565b803560ff81168114611712575f5ffd5b919050565b5f60208284031215611727575f5ffd5b813567ffffffffffffffff81111561173d575f5ffd5b82016080818503121561174e575f5ffd5b6117566116a8565b8135815261176660208301611702565b602082015261177760408301611702565b6040820152606082013567ffffffffffffffff811115611795575f5ffd5b80830192505084601f8301126117a9575f5ffd5b813567ffffffffffffffff8111156117c3576117c3611694565b6117d6601f8201601f19166020016116d1565b8181528660208386010111156117ea575f5ffd5b816020850160208301375f918101602001919091526060820152949350505050565b80356001600160801b0381168114611712575f5ffd5b5f5f83601f840112611832575f5ffd5b50813567ffffffffffffffff811115611849575f5ffd5b602083019150836020828501011115611860575f5ffd5b9250929050565b5f5f5f5f5f5f6080878903121561187c575f5ffd5b6118858761180c565b9550602087013567ffffffffffffffff8111156118a0575f5ffd5b6118ac89828a01611822565b90965094506118bf90506040880161180c565b9250606087013567ffffffffffffffff8111156118da575f5ffd5b6118e689828a01611822565b979a9699509497509295939492505050565b5f60208284031215611908575f5ffd5b5051919050565b6020808252600a90820152694e6f742061637469766560b01b604082015260600190565b634e487b7160e01b5f52601160045260245ffd5b8082028115828204841417610d2357610d23611933565b5f6020828403121561196e575f5ffd5b81518015158114610ea5575f5ffd5b81810381811115610d2357610d23611933565b5f81518084528060208401602086015e5f602082860101526020601f19601f83011685010191505092915050565b604081528251604082015260ff602084015116606082015260ff60408401511660808201525f6060840151608060a08401526119fd60c0840182611990565b91505060018060a01b03831660208301529392505050565b5f8151808452602084019350602083015f5b82811015611a45578151865260209586019590910190600101611a27565b5093949350505050565b60ff851681525f60208510611a7257634e487b7160e01b5f52602160045260245ffd5b84602083015260806040830152611a8c6080830185611a15565b8281036060840152611a9e8185611a15565b979650505050505050565b838152826020820152606060408201525f6112396060830184611990565b634e487b7160e01b5f52603260045260245ffdfea26469706673582212206ab6c35d39d57c4295ceaa8c92af5b838bc15388b3e3a742b82680300dd60f4864736f6c634300081c0033a264697066735822122046341da6b933216edd549ded4c6e5425d8175991e1d75e37f5369f82a25585ae64736f6c634300081c0033",
  "linkReferences": {},
  "deployedLinkReferences": {}
}